:100000000C9462000C948A000C948A000C946F1E6D
:100010000C946F1E0C946F1E0C948A000C94791E25
:100020000C948A000C948A000C948A000C9454203E
:100030000C948A000C948A000C948A000C948A0018
:100040000C94251E0C948A000C94F31D0C94CD1D69
:100050000C948A000C948A000C948A000C948A00F8
:100060000C94351F0C948A00000000002400270027
:100070002A0000000000250028002B0000000008D6
:10008000000201000003040700000000000000005F
:1000900000000000230026002900040404040404D6
:1000A0000404020202020202030303030303010227
:1000B00004081020408001020408102001020408F6
:1000C0001020552111241FBECFEFD8E0DEBFCDBFD9
:1000D00012E0A0E0B1E0EAEBF2E502C005900D927B
:1000E000AE30B107D9F725E0AEE0B2E001C01D9215
:1000F000A73DB207E1F710E0C2E6D0E004C02197C7
:10010000FE010E94EB27C136D107C9F70E94F321F7
:100110000C945B290C9400000F931F93CF93DF93F3
:10012000EC0102E114E0D8018D919C916C2F6F7766
:10013000DC01ED91FC910190F081E02D0995F80131
:1001400080819181CC0FCD2FCC1FDD0B6C2F6F7771
:10015000DC01ED91FC910190F081E02DDF91CF91D8
:100160001F910F910994CF93DF93EB01A09112049B
:10017000B09113048F70682F606EED91FC91119710
:100180000190F081E02DCD010995CE01DF91CF9155
:100190000C948C008091120490911304DC01ED9179
:1001A000FC910190F081E02D67EF09948091120499
:1001B00090911304DC01ED91FC910190F081E02D10
:1001C00060EF0994FF920F931F93CF93DF93C82F93
:1001D000062FF42E152F0E94D600809112049091C4
:1001E0001304DC01ED91FC910190F081E02D6C2F66
:1001F0000995CF2DD12F0C0F1D2F111DC017D10721
:1002000029F0899190E00E948C00F8CFDF91CF9186
:100210001F910F91FF900C94CA008091EF02909172
:10022000F002891B990B0895CF93DF930E94D600AB
:100230008091120490911304DC01ED91FC910190E6
:10024000F081E02D69E709958091120490911304E3
:10025000A0911504B0911604EC01E881F981019098
:10026000F081E02D6C910995809112049091130416
:10027000A0911504B0911604EC01E881F981019078
:10028000F081E02D11966C910995C2E080911404E3
:10029000C81760F4E0911504F0911604EC0FF11DFD
:1002A000808190E00E948C00CF5FF0CFDF91CF91F2
:1002B0000C94CA00CF93DF93C2E1D4E08881998186
:1002C000DC01ED91FC910190F081E02D69EF099541
:1002D00088819981DC01ED91FC910190F081E02D04
:1002E00062E0099588819981DC01ED91FC91019092
:1002F000F081E02D65E0DF91CF910994A091120487
:10030000B0911304ED91FC9111970190F081E02DD3
:10031000682FCD01099410921704109218041092BE
:100320001904EAE1F4E0119284E0EA35F807D9F71C
:1003300010925A0410925C0410925B04E091A504A0
:10034000F091A604309709F009940895089508954E
:10035000AF92BF92CF92DF92EF92FF920F931F93D3
:10036000CF93DF936C017B018B01040F151FEB0111
:100370005E01AE18BF08C017D10759F06991D601C8
:10038000ED91FC910190F081E02DC6010995892B3A
:1003900079F7C501DF91CF911F910F91FF90EF90F9
:1003A000DF90CF90BF90AF900895FC01538D448DA6
:1003B000252F30E0842F90E0821B930B541710F010
:1003C000CF96089501970895FC01918D828D98171D
:1003D00061F0A28DAE0FBF2FB11D5D968C91928DF5
:1003E0009F5F9F73928F90E008958FEF9FEF089526
:1003F000FC01918D828D981731F0828DE80FF11DEF
:10040000858D90E008958FEF9FEF0895FC01918D09
:10041000228D892F90E0805C9F4F821B91098F7302
:10042000992708958FE693E00E94060221E0892B28
:1004300009F420E0822F089580E090E0892B29F0D4
:100440000E94120281110C9400000895FC01A48DF9
:10045000A80FB92FB11DA35ABF4F2C91848D90E0E6
:1004600001968F739927848FA689B7892C93A089C9
:10047000B1898C91837080648C93938D848D981353
:1004800006C00288F389E02D80818F7D80830895E6
:10049000EF92FF920F931F93CF93DF93EC0181E0D4
:1004A000888F9B8D8C8D98131AC0E889F98980817B
:1004B00085FF15C09FB7F894EE89FF896083E889AE
:1004C000F98980818370806480839FBF81E090E0A0
:1004D000DF91CF911F910F91FF90EF900895F62E2D
:1004E0000B8D10E00F5F1F4F0F731127E02E8C8DC7
:1004F0008E110CC00FB607FCFACFE889F98980810C
:1005000085FFF5CFCE010E942602F1CFEB8DEC0FD7
:10051000FD2FF11DE35AFF4FF0829FB7F8940B8F28
:10052000EA89FB8980818062CFCF8FE693E00C94CB
:100530004802682F8FE693E00C944802682F8FE6FC
:1005400093E00C944802CF93DF93EC01888D8823CD
:10055000B9F0AA89BB89E889F9898C9185FD03C026
:10056000808186FD0DC00FB607FCF7CF8C9185FF0B
:10057000F2CF808185FFEDCFCE010E942602E9CF28
:10058000DF91CF910895833081F028F4813099F084
:100590008230A9F008958730A9F08830C9F08430FE
:1005A000B1F4809180008F7D03C0809180008F77AF
:1005B00080938000089584B58F7784BD089584B5B5
:1005C0008F7DFBCF8091B0008F778093B00008952E
:1005D0008091B0008F7DF9CFCF93DF93282F30E04B
:1005E000F901E458FF4F8491F901E255FF4FD4918E
:1005F000F901E656FF4FC491CC23A1F081110E946E
:10060000C302EC2FF0E0EE0FFF1FE057FF4FA59164
:10061000B491EC91ED2381E090E009F480E0DF916A
:10062000CF91089580E090E0FACF1F93CF93DF93AE
:10063000282F30E0F901E458FF4F8491F901E25589
:10064000FF4FD491F901E656FF4FC491CC23A9F096
:10065000162F81110E94C302EC2FF0E0EE0FFF1F56
:10066000EE58FF4FA591B4918FB7F894EC9111110A
:1006700008C0D095DE23DC938FBFDF91CF911F910F
:100680000895DE2BF8CFCF93DF9390E0FC01E25585
:10069000FF4F249186569F4FFC0184918823C9F017
:1006A00090E0880F991FFC01E859FF4FA591B49184
:1006B000FC01EE58FF4FC591D49161110DC09FB759
:1006C000F8948C91209582238C9388812823288309
:1006D0009FBFDF91CF910895623051F49FB7F89496
:1006E0003C91822F809583238C93E8812E2BEFCF32
:1006F0008FB7F894EC912E2B2C938FBFEACF8E30CE
:1007000008F08E508770806480937C0080917A001E
:10071000806480937A0080917A0086FDFCCF80917E
:1007200078009091790008958230910538F0880F13
:10073000991F880F991F05970197F1F708953FB703
:10074000F89480919F029091A002A091A102B09193
:10075000A20226B5A89B05C02F3F19F00196A11D46
:10076000B11D3FBFBA2FA92F982F8827BC01CD01FB
:10077000620F711D811D911D42E0660F771F881F5A
:10078000991F4A95D1F708958F929F92AF92BF9289
:10079000CF92DF92EF92FF926B017C010E949F0348
:1007A0004B015C01C114D104E104F104B9F00E94D1
:1007B0009F03681979098A099B09683E734081057E
:1007C000910580F321E0C21AD108E108F10888EE12
:1007D000880E83E0981EA11CB11CE4CFFF90EF901F
:1007E000DF90CF90BF90AF909F908F9008958F92A1
:1007F0009F92AF92BF92CF92DF92EF92FF926B01E6
:100800007C010E949F034B015C0184E0C81AD1085F
:10081000E108F108C80CD91CEA1CFB1CC814D90457
:10082000EA04FB0438F40E949F0386169706A80684
:10083000B906C8F30E949F036C157D058E059F05C0
:10084000C8F3FF90EF90DF90CF90BF90AF909F9054
:100850008F9008952091B0002F7D2093B0008530B7
:10086000910528F0BC0190E080E00C94F703089516
:10087000E0EBF0E0208120622083BC0190E080E08A
:100880000C94F703CF92DF92EF92FF92CF93DF9316
:10089000EC01072E000C880B990B0E94B2266B010D
:1008A0007C0120E030E040E45FE30E94622720E02A
:1008B00030E048E452E40E9408260E947A26C617D7
:1008C000D707D4F020E030E040EA5FE3C701B6018B
:1008D0000E94622720E030E048E452E40E940826AB
:1008E00020E030E040E85FE30E9497250E947A26EE
:1008F00021E06C177D070CF420E0822F90E0DF915F
:10090000CF91FF90EF90DF90CF9008958F929F92BC
:10091000AF92BF92CF92DF92EF92FF920F931F930D
:10092000CF93DF93FC0120813181E091EB02F091C4
:10093000EC0201E010E02E173F070CF045C0D90192
:10094000AA0FBB1FE091E902F091EA02EA0FFB1F38
:10095000A080B1808901009510950170112720FDBC
:1009600027C02CE93FEFEA016B017C014901840EAD
:10097000951EB401C5010E94420421E030E0892B9C
:10098000D1F48C0E9D1EB401C5010E94420422E0E8
:1009900030E0892B81F4BE01680D791DC5010E94EC
:1009A000420423E030E0892B31F40FEF1FEF0CC03D
:1009B00024E630E0D8CFF60180819181019682173C
:1009C000930784F491838083C801DF91CF911F91B5
:1009D0000F91FF90EF90DF90CF90BF90AF909F90DE
:1009E0008F90089511821082F70180819181019684
:1009F000E9CF20917902260F3327331F21323105A9
:100A0000ECF420914503FC0190E080E0243069F093
:100A100082E00895A09179022191AC01475A5D4F7F
:100A2000A40FB52FB11D2C930196861798F38091D2
:100A30007902680F6093790280E0089581E008955B
:100A40001092450381E08093440310921F0361E0FC
:100A500082E10E94150361E083E10E941503E9EB46
:100A6000F0E080818E7F808380818D7F808388E429
:100A70008093B80085E48093BC000895CF93DF9302
:100A800091E0909358028823B9F0C091B800D091BA
:100A9000BA008091BC008A7B8093BC0060E082E158
:100AA0000E94150360E083E10E9415030E94200567
:100AB000D093BA00C093B800DF91CF9108958F9280
:100AC0009F92AF92BF92CF92DF92EF92FF920F93DD
:100AD0001F93CF93DF93D0916E03D13208F0D7C02C
:100AE000182FC0916D030E949F036B017C018091C0
:100AF000450381116BC082E080934503109344034A
:100B00008FEF8093430310924203D0934103ADE4EF
:100B1000B3E0E1E2F3E080E0D81391C0109220034B
:100B200080912003CC0FC82BC093200380911F031A
:100B3000813009F088C010921F030E949F036B014F
:100B40007C01809120038093BB00809147039091AA
:100B50004803A0914903B0914A03892B8A2B8B2B20
:100B6000A1F00E949F030091470310914803209138
:100B7000490330914A036C197D098E099F090617B4
:100B800017072807390708F442C08091BC0083FD8D
:100B9000D8CF85EC8093BC000E949F036B017C0141
:100BA00080914503823009F450C0809143038F3F08
:100BB00009F46FC080914303803209F46CC08091C6
:100BC0004303803309F469C084E026C08091470361
:100BD00090914803A0914903B0914A03892B8A2B35
:100BE0008B2B09F484CF0E949F0380904703909041
:100BF0004803A0904903B0904A036C197D098E09FF
:100C00009F0986169706A806B90608F070CF80914E
:100C100046030E943E0585E010924C0310926E033D
:100C200010924B03DF91CF911F910F91FF90EF90A6
:100C3000DF90CF90BF90AF909F908F9008959D913F
:100C400091938F5F69CF85EEA5CF809147039091F7
:100C50004803A0914903B0914A03892B8A2B8B2B1F
:100C600009F49ECF0E949F0300914703109148030F
:100C70002091490330914A036C197D098E099F091F
:100C8000061717072807390708F08ACFC0CF81E079
:100C9000C3CF80E0C1CF82E0BFCF83E0BDCFCF9292
:100CA000DF92EF92FF920F931F93CF93DF93D82F92
:100CB000C62F613208F098C00E949F036B017C012F
:100CC0008091450381116BC081E08093450380933F
:100CD00044039FEF90934303109242039C0F909321
:100CE00041038093200380912003DD0FD82BD09304
:100CF000200380911F03813009F078C010921F03F8
:100D00000E949F036B017C01809120038093BB00B4
:100D10008091470390914803A0914903B0914A0301
:100D2000892B8A2B8B2BA1F00E949F0300914703F4
:100D3000109148032091490330914A036C197D09B1
:100D40008E099F09061717072807390708F448C0B6
:100D50008091BC0083FDD8CF85EC8093BC000E94BD
:100D60009F036B017C0180914503813009F440C0F1
:100D7000809142038C1710F4C0914203E1E2F3E04A
:100D8000A1EFB2E080E08C1355C08C2FDF91CF91A2
:100D90001F910F91FF90EF90DF90CF900895809179
:100DA000470390914803A0914903B0914A03892BCE
:100DB0008A2B8B2B09F484CF0E949F030091470359
:100DC000109148032091490330914A036C197D0921
:100DD0008E099F09061717072807390708F070CFF3
:100DE000809146030E943E05C0E0CFCF85EEB5CF8F
:100DF0008091470390914803A0914903B0914A0321
:100E0000892B8A2B8B2B09F4AECF0E949F03009174
:100E10004703109148032091490330914A036C190C
:100E20007D098E099F09061717072807390708F05B
:100E30009ACFD6CF91919D938F5FA5CF0895E091E2
:100E4000F0028091EF02E81730F4F0E0EF50FD4F30
:100E5000808190E008958FEF9FEF08959091F002C8
:100E60008091EF022FEF3FEF981748F4E92FF0E061
:100E7000EF50FD4F208130E09F5F9093F002C90159
:100E80000895CF92DF92EF92FF920F931F93CF932B
:100E9000DF937C01CB018A0120914B03222389F04F
:100EA000EB016B01C40ED51ECC15DD0569F069910F
:100EB000D701ED91FC910190F081E02DC7010995DA
:100EC000F3CF642F0E94F904C801DF91CF911F91E5
:100ED0000F91FF90EF90DF90CF900895CF93DF9325
:100EE0001F92CDB7DEB7698320914B032223F9F01F
:100EF00020916E03203258F021E030E0FC01338372
:100F0000228390E080E00F90DF91CF91089580914F
:100F10004C03E82FF0E0E35BFC4F998190838F5FF7
:100F200080934C0380936E0381E090E0ECCF61E00E
:100F3000CE0101960E94F904F7CFCF93C82F81E02C
:100F400080934B0382E580936D0310924C031092C3
:100F50006E038CEA94E00E946E076C2F8CEA94E09A
:100F60000E946E0781E00E945F056AE070E080E009
:100F700090E0CF910C94C40390E080E00895DF925C
:100F8000EF92FF920F931F93CF93DF93EC01D62E36
:100F90007A01890188818C3008F067C061E08D2D6D
:100FA0000E9443038881282F30E0F901EE0FFF1FD4
:100FB000E20FF31FE854FB4F9D2D9F736081607C0F
:100FC000692B608320E232E02E193F0937FF02C00F
:100FD0002D5F3F4F3595279535952795298320E639
:100FE00039E0201B310B37FF02C02D5F3F4F359595
:100FF0002795359527952A832CE0622F0E94DF27BD
:10100000829FB001112430E020E0AB01420F531F5A
:10101000FA01EE0FFF1FE40FF51FE854FB4F90811C
:1010200096FD16C02F5F3F4F2C30310571F78111AF
:101030000FC01092800082E08093810010928500A2
:1010400010928400B19A80916F00826080936F004B
:10105000E8818E2F90E0FC01EE0FFF1FE80FF91FD3
:10106000E854FB4F8081806480838881DF91CF9139
:101070001F910F91FF90EF90DF900895CF938630EE
:10108000B0F421E030E0082E02C0220F331F0A9492
:10109000E2F74091D9025091DA02672B51F4209582
:1010A0003095242335233093DA022093D902CF914F
:1010B0000895242B352B3093DA022093D902909196
:1010C00056029111F4CFC82F0E947F03BC018C2FD0
:1010D000CF910C94B3005F926F927F928F929F9208
:1010E000AF92BF92CF92DF92EF92FF920F931F9336
:1010F000CF93DF93833008F061C0D1E0D80FDD0FCC
:10110000DD0FDD0F5D2ED53110F044E1542EC62FDA
:10111000082FD8508D2E912CC401880F991F9C0147
:101120002E5E3B4F5901D12CC12C10E077247394D3
:10113000D515C8F58EEF8D0F8231F8F4F601E80D64
:10114000F91DE35AFB4F90819230B8F48C2F872120
:1011500066246394811101C0612C7601EE0CFF1CA2
:10116000913089F417293FE5E30EF11CF501EE0DEE
:10117000FF1D862D90E091838083770CDF5F8FEFDA
:10118000C81AD80AD5CF882371F3F701E15AFF4F67
:10119000EA0DFB1D80819181019729F362E08D2F7B
:1011A0000E944303E0CF011119C0F8948BB16C2F5A
:1011B00068276C7F612368276BB97894DF91CF91A2
:1011C0001F910F91FF90EF90DF90CF90BF90AF9065
:1011D0009F908F907F906F905F9008950130D1F431
:1011E000C123F89495B1812F8F73809589239C2F0B
:1011F0009F73892B85B988B1612F62956695669535
:10120000637060956823C295C695C695C370C62B5A
:10121000C8B9D3CF1F70F89498B1812F880F880F69
:1012200080958923C123CC0FCC0FC82BF1CF8F928F
:101230009F92AF92BF92CF92DF92EF92FF920F9365
:101240001F93CF93DF93EB01843108F098C0082FF0
:1012500010E0F801E35AFB4F9081933009F49CC0F1
:10126000943009F08CC08250823108F081C0F801BE
:10127000E25CFD4FC080D12C7601EE0CFF1C4B01CF
:10128000603282E078070CF03EC0F701EC0DFD1DE6
:10129000E155FA4F8181A8E88A2E912C881A91088D
:1012A00087FD9394880C991C880C991C092C000CC0
:1012B000AA08BB08828128E532E0281B310987FD96
:1012C0003395220F331F220F331F032E000C440BC4
:1012D000550B281939094A095B09DB01653B710582
:1012E00014F0A4EBB0E0B7FF02C0B0E0A0E00E94B1
:1012F0005D2524EB30E040E050E00E943325820E73
:10130000931EA41EB51EF701EC0DFD1DE155FA4F0D
:1013100020812C3068F5318188E890E0831B9109A9
:1013200037FD9395880F991F880F991F8816990686
:101330007CF0328188E592E0831B910937FD93951B
:10134000880F991F880F991F881699060CF4C401FD
:101350000297880F991F4FB7F89430E0F901EE0F0C
:10136000FF1FE20FF31FE854FB4F928381834FBFAF
:10137000000F111FF801EF58FB4FD183C083DF919D
:10138000CF911F910F91FF90EF90DF90CF90BF9082
:10139000AF909F908F9008957B01D82F833041F0BC
:1013A0008BEF800F823020F087EF800F833058F46E
:1013B00061E08D2F0E944303E114F10461F460E0C9
:1013C0008D2F0E941503000F111FF801EF58FB4FDE
:1013D000F182E082D4CF8FEFE816F10411F461E0DE
:1013E000EFCFF801E458FF4FE491E33021F148F4E6
:1013F000E130B9F0E230D1F080E8E816F1047CF792
:10140000DECFE73011F1E83041F1E430A9F7809107
:101410008000806280938000F0928B00E0928A00CE
:10142000D2CF84B5806884BDE7BCCDCF84B580625F
:1014300084BDE8BCC8CF8091800080688093800024
:10144000F0928900E0928800BECF8091B000806861
:101450008093B000E092B300B6CF8091B00080627C
:101460008093B000E092B400AECF9EEF980F92311F
:1014700080F4E82FF0E0DF01A35ABB4F9C9191303C
:1014800041F4EE0FFF1FEF58FB4F608371830C9404
:10149000150308950F931F93CF93082F10E0F801C1
:1014A000E955FD4F9081C62FC9230E5A1D4F41119A
:1014B00004C0D8019C919C1771F1682F809112048F
:1014C000909113046F706069DC01ED91FC910190C3
:1014D000F081E02D099580911204909113046C2FF6
:1014E0006F77DC01ED91FC910190F081E02D099581
:1014F00080911204909113046C2F70E0660F672F97
:10150000661F770BDC01ED91FC910190F081E02DDD
:101510000995F801C083CF911F910F9108958330F1
:1015200040F5282F30E0F901E655FD4F6083672B29
:1015300001F129553D4FF9016081811106C099B132
:101540009C7F692341E00C944A0A813049F493B1AD
:1015500026B19F73F0E42F9F90011124922BF1CFBD
:1015600026B130E035952795359527952F70622364
:10157000E9CF0895A82FB0E0A25CBD4FEC918E2F6B
:1015800090E0FC01EE0FFF1FE80FF91FE155FA4F45
:101590008081282F30E0F901EE0FFF1FE20FF31FCB
:1015A000E854FB4F90819F7B90832CE0622F0E9438
:1015B000DF27829FC001112430E020E0AC01420F00
:1015C000531FFA01EE0FFF1FE40FF51FE854FB4F06
:1015D000408146FD11C02F5F3F4F2C30310571F720
:1015E0001092810082E08093810081E080938100ED
:1015F0008093800010926F008C9190913C0289132F
:1016000008C0882319F0815080933C028FEF8C939F
:1016100008959923D9F3E0913D02EF5FE0933D02F5
:10162000F0E0E35FFD4F8083F1CFFC0101900020EB
:10163000E9F73197BF01681B790BAC0181E70C9486
:10164000E200CF93DF93DB0190913C029C3078F570
:1016500030913D02682F70E0FB01E25CFD4F3323C7
:10166000E1F0C32FD0E0C35FDD4F8881808331502C
:1016700030933D02808123E0829FC0011124815577
:101680009A4F1A161B0674F4141615065CF49A0188
:10169000AD01DF91CF910C94BF0790839F5F909332
:1016A0003C02E8CF20E639E040E252E0F2CF83E3AB
:1016B00091E0DF91CF910C94150B8F929F92AF9296
:1016C000BF92EF92FF920F931F93CF93DF93CDB70B
:1016D000DEB7A1970FB6F894DEBF0FBECDBF7C0179
:1016E000FA01CB0119A2223008F42AE08E010F5D25
:1016F0001F4F822E912CB12CA12CBF01A50194016A
:101700000E946525F901CA016A3074F5605DD8014F
:101710006E938D01232B242B252B79F790E080E00D
:10172000109789F0FD0101900020E9F73197AF0192
:101730004A1B5B0BD701ED91FC910280F381E02DF8
:10174000B801C7010995A1960FB6F894DEBF0FBE88
:10175000CDBFDF91CF911F910F91FF90EF90BF9080
:10176000AF909F908F900895695CD1CFFF920F93B7
:101770001F93CF93DF93CDB7DEB72C970FB6F894B6
:10178000DEBF0FBECDBF66E082E50E944F06F82E99
:101790001092F0028093EF028E010F5F1F4F809135
:1017A000F002F81649F08CEA94E00E942E07F80146
:1017B000819391938F01F3CF89819A819093120342
:1017C000809311038B819C81909314038093130366
:1017D0008B859C852D813E81220F331F220F331F65
:1017E000AC01559547955595479543705527242B42
:1017F000352B30931603209315032F813885220F44
:10180000331F220F331FAC01E4E055954795EA954D
:10181000E1F743705527242B352B30931803209381
:10182000170329853A85220F331F220F331FAC017E
:10183000A6E055954795AA95E1F743705527242BC7
:10184000352B30931A03209319039C012095309572
:101850002170332730931C0320931B0321E030E0D9
:1018600081FF02C030E020E030931E0320931D036F
:1018700060E080E02C960FB6F894DEBF0FBECDBFBF
:10188000DF91CF911F910F91FF900C949D078F9244
:101890009F92AF92BF92CF92DF92EF92FF920F93FF
:1018A0001F93CF93DF937C01EB016C0182E0C80EA4
:1018B000D11C4701E5E08E0E911C10E000E0F6011E
:1018C00041916F0150E070E060E02AE0CE010E949B
:1018D0005D0B5C01E881F9810190F081E02D6EE201
:1018E000CE0109958A0D9B1D080F191FC814D90434
:1018F00031F7F701458150E070E060E02AE0CE0169
:101900000E945D0B800F911FDF91CF911F910F916E
:10191000FF90EF90DF90CF90BF90AF909F908F900F
:1019200008959F92AF92BF92CF92DF92EF92FF9273
:101930000F931F93CF93DF93C82ED12CE601CE5E79
:10194000DB4FFE01E55BFF4F90819F3709F49FC09D
:10195000963061F490915502992341F066307105FB
:1019600029F0109255029FEF909300017B01182FF0
:101970000EEF080F023108F564307105F1F0F60141
:10198000E25CFD4F80818C30C0F490E0FC01EE0FF2
:10199000FF1FE80FF91FE155FA4FE0818E2F90E00D
:1019A000FC01EE0FFF1FE80FF91FE854FB4F808189
:1019B00086FF03C0812F0E94BA0A52EF952E910E26
:1019C00085E0891558F061E070E032E0E316F1043B
:1019D00011F070E060E0892D0E943E080231C8F4E9
:1019E000E12FE695E695E695F0E0E955FD4F20817B
:1019F000312F377081E090E001C0880F3A95EAF707
:101A0000E114F10421F03BE0E316F10401F5822B2F
:101A100080835601AA0CBB1CF501EF58FB4F1182C5
:101A200010828CE0E816F10408F0C4C0F701E55E0E
:101A3000F24F0C94EB273B0D680D2A0D790D970D95
:101A4000DA0DCE0DDA0DDA0DDA0D470D530D809556
:101A50008223DECF35E03915D0F0023120F460E08A
:101A6000812F0E944303C55BDF4F88818F3779F058
:101A700082E088830CC0023150F460E0812F0E9424
:101A80004303C55BDF4F88818F3709F01882DF91F0
:101A9000CF911F910F91FF90EF90DF90CF90BF906B
:101AA000AF909F900895023190F762E0812F0E94DD
:101AB0004303C55BDF4F88818F3711F08BE088834C
:101AC000F501EF58FB4F81E090E091838083DFCFF9
:101AD0000231E8F660E0812F0E94150361E0812F5A
:101AE0000E944303C55BDF4F88818F3781F281E01D
:101AF000C0CF133041F08BEF810F823020F087EFA1
:101B0000810F833020F661E0812F0E94430361E062
:101B1000812F0E94430360E0812F0E941503C55B63
:101B2000DF4F88818F3709F4B2CF83E0A2CF023133
:101B300008F0ADCFC55BDF4F88818F3711F084E0AF
:101B40008883F601E25CFD4F80818F3FA9F090E031
:101B5000FC01EE0FFF1FE80FF91FE155FA4FE0817E
:101B60008E2F90E0FC01EE0FFF1FE80FF91FE854E5
:101B7000FB4F808186FD8BCF4FEF5FEF6FEF7FEFE5
:101B8000812FDF91CF911F910F91FF90EF90DF9008
:101B9000CF90BF90AF909F900C94210B12511230B8
:101BA00008F075CFC55BDF4F88818F3709F46FCFA1
:101BB00086E05FCF87E491E0DF91CF911F910F9195
:101BC000FF90EF90DF90CF90BF90AF909F900C94DC
:101BD000150B0F931F93CF93DF9381E080935602F1
:101BE00080915502882329F0109255028FEF80933F
:101BF00000011092AA021092A702109252021092B3
:101C0000AB021092A802109253021092AC021092F2
:101C1000A902109254020EE312E0C0E0DFEF82EF5F
:101C20008C0F62E070E0863030F08EEF8C0F8231E6
:101C300028F461E070E08C2F0E94910CF801D193A0
:101C40008F01CF5FC43159F71092DA021092D90296
:101C500010923D0210923C0210925602DF91CF91F9
:101C60001F910F910895EF92FF920F931F93CF93BF
:101C7000DF93D82F8B01C42FF22E6F3F760709F424
:101C800048C081E080934B03D0936D0310924C03C6
:101C900010926E038CEA94E00E946E078F2D0E94D2
:101CA0005F0580913A0290913B02009711F00E94EB
:101CB00094036C2FC13208F060E28D2F0E944F0612
:101CC0001092F0028093EF02EC2EF12C90E0E816D7
:101CD000F9060CF588E591E00E94150BD0931A02E5
:101CE00000931B020AE112E0C8018A5192408E154E
:101CF0009F05BCF40F5F1F4F9091EF028091F0029F
:101D0000981779F08CEA94E00E942E07F8018183FD
:101D1000EBCF00E0CECF8E159F0504F785E791E06D
:101D2000DBCF62E06C0F4AE152E087E7DF91CF91B1
:101D30001F910F91FF90EF900C94E2000F931F936F
:101D400090E0FC01E255FF4F7491FC01E656FF4F15
:101D5000E4916111672FF0E0EE0FFF1FE057FF4F96
:101D60008591949189019A013F70462F672F0E94B7
:101D70001021611571058105910529F06F5F7F4F75
:101D80008F4F9F4F9F701F910F9108952F923F92F9
:101D90004F925F926F927F928F929F92AF92BF927B
:101DA000CF92DF92EF92FF920F931F93CF93DF9327
:101DB000CDB7DEB729970FB6F894DEBF0FBECDBF03
:101DC000F62E8A01833C09F4E7C408F0AAC08637DE
:101DD00009F4BFC208F069C08D3609F464C4F8F490
:101DE000893609F4A2C48B3609F4FEC329960FB6CE
:101DF000F894DEBF0FBECDBFDF91CF911F910F9141
:101E0000FF90EF90DF90CF90BF90AF909F908F901A
:101E10007F906F905F904F903F902F9008958F36F6
:101E200009F4BCC3803711F7B4E0B617F8F6FA012D
:101E3000F0808EEF8F0D8231C8F6E180C280D380B2
:101E40001481EF2DF0E0E25CFD4F80818C30C0F416
:101E500090E0FC01EE0FFF1FE80FF91FE155FA4F6C
:101E6000E0818E2F90E0FC01EE0FFF1FE80FF91FBD
:101E7000E854FB4F808186FF03C08F2D0E94BA0A71
:101E8000F0E81F9FA00111244D0D511D20E8C29EB6
:101E9000B00111246E0D711D8F2D0E94210B64E085
:101EA00070E08F2D0E94910CA1CF803C09F44EC4AC
:101EB000F0F4883709F433C38A3709F097CF31E05B
:101EC000361708F093CFDA0111968C91B0E88B9F0A
:101ED00090011124FA018081820F932F911D0097A8
:101EE00009F459C390930201809301017FCF813C93
:101EF00009F445C4823C09F079CF0E94B60B0091E9
:101F00001B0310911C0380EF90E00E949E0282EC64
:101F100090E00E949E02C8018F7799270E949E023E
:101F200065C4893C09F44BC508F0E9C0863C09F456
:101F300062C498F4843C09F43CC4853C09F056CF53
:101F40000E94B60B009117031091180380EF90E0E8
:101F50000E949E0285EC90E038C4873C09F458C486
:101F6000883C09F043CFDA0114962C911497CC9059
:101F7000D12CF12CE12C59E1CC0CDD1CEE1CFF1C0A
:101F80005A95D1F711968C9190E0B0E0A0E062E113
:101F9000880F991FAA1FBB1F6A95D1F7C82AD92A93
:101FA000EA2AFB2AF801828190E0B0E0A0E07BE021
:101FB000880F991FAA1FBB1F7A95D1F7C82AD92A63
:101FC000EA2AFB2A838190E0B0E0A0E0E4E0880FF9
:101FD000991FAA1FBB1FEA95D1F7C82AD92AEA2A56
:101FE000FB2A822F90E0B0E0A0E0F3E0B695A79541
:101FF00097958795FA95D1F7C82AD92AEA2AFB2A14
:1020000030E0B9017595679575956795F62FF17074
:10201000BF2ED80115961C911F73B6E0220F331FF7
:10202000BA95E1F7122B60E0812F0E94430320E470
:1020300032E44FE050E0C114D104E104F10411F0A6
:10204000A70196016B2D812F0E949E0E6B017C01D2
:1020500080EF90E00E949E0288EC90E00E949E0239
:10206000C701B601B9E19695879577956795BA95B9
:10207000D1F70E949502C701B60102E196958795B6
:10208000779567950A95D1F76F77772788279927EE
:102090000E949502C701B6012BE09695879577952A
:1020A00067952A95D1F76F777727882799270E9418
:1020B0009502C701B60134E09695879577956795A7
:1020C0003A95D1F76F777727882799270E9495024D
:1020D00043E0CC0CDD1CEE1CFF1C4A95D1F7C70178
:1020E000B6016877772788279927212F229526958B
:1020F0002770622B0E9495021F71812F3EC38C3C7A
:1021000011F40C94EA1B08F0CDC08A3C09F4B7C462
:102110008B3C09F06BCE82E08093DD041092E104E9
:102120008FB7F894C090AD02D090AE02E090AF02AD
:10213000F090B0028FBF30EDC30E37E0D31EE11C2C
:10214000F11C22242394312C84EE94E09093EA0233
:102150008093E9028091E10490E09093EC028093F7
:10216000EB028091AE0590E09093EE028093ED0239
:102170008091DD04853011F00C94D61B8091E6042B
:102180009091E704885891098D35910508F008C5AC
:102190008091E104843009F0D7C48091E8049091E3
:1021A000E9048097479708F0CFC48091EA049091A2
:1021B000EB040997099708F0C7C41092E80210923F
:1021C000E7028FEF9FEFDC018093E3029093E4023C
:1021D000A093E502B093E60283E090E09093E002E2
:1021E0008093DF02C090E302D090E402E090E50229
:1021F000F090E6021092E3021092E4021092E502DF
:102200001092E60280EF90E00E949E028BEC90E03C
:102210000E949E02C701B60129E1969587957795A0
:1022200067952A95D1F70E949502C701B60132E160
:1022300096958795779567953A95D1F76F77772734
:10224000882799270E949502C701B6014BE0969511
:102250008795779567954A95D1F76F777727882780
:1022600099270E949502C701B60154E0969587957B
:10227000779567955A95D1F76F77772788279927AC
:102280000E94950263E0CC0CDD1CEE1CFF1C6A95DD
:10229000D1F7C701B60168777727882799270E9469
:1022A0009502A4C28E3C11F40C940F1C10F40C94F3
:1022B000031C8F3C09F09ACDDA012C91822F90E01B
:1022C00095958795182F1F732170322E19821A82C7
:1022D0001B821C821D8262E0812F0E94430361E009
:1022E000812F0E9415036AEF70E080E090E00E9469
:1022F000C40361E0812F0E94430360E0812F0E94AC
:10230000150364E170E080E090E00E94C40361E0A6
:10231000812F0E9415038BE990E00197F1F762E0AD
:10232000812F0E94430383E290E00197F1F7B1E12E
:10233000EB2EB7E2FB2E812F0E94EC02892B11F0CD
:102340000C94F91CB1E0EB1AF108A9F701E00C9428
:10235000081DDA0111969C91119795FF05C081E93E
:1023600091E00E94150B42CDFA01808131E096FB8D
:10237000222720F9232798719830A9F1F0F49111C0
:1023800035CD30934B0380936D0310924C03109224
:102390006E0382E0E82EEF14F0F4F801EE0DF11D6B
:1023A00061816795662767958081680F8CEA94E064
:1023B0000E946E07E394E394EECF9031B1F198312F
:1023C00009F014CD2091000112160CF463C08FEFB8
:1023D000809300010BCD81E00E945F0583E191E0D5
:1023E0000197F1F703CD12969C91129713964C9199
:1023F000B6E06B1313C0E0E84E9FB0011124690FE3
:10240000711DD80115964C9115974795442747950E
:1024100014969C91490F0E94330EE8CC47954427AF
:102420004795490F6FEF7FEFF6CFE0910001E7305E
:102430001CF081EB91E095CF12963C911297139688
:102440009C91B6E06B131FC0F0E89F9FA001112480
:10245000430F511DD80115969C9115979795992773
:10246000979514963C91930FEF5FE0930001B5E0D0
:10247000EB02F0011124EF54FD4F8083528341831E
:1024800093832483B3CC979599279795930F4FEF18
:102490005FEFEACF90E0622F022E000C770B35E061
:1024A000492F50E06417750764F0349FF001359FA1
:1024B000F00D1124EF54FD4F4081481719F09F5F34
:1024C000EFCF90E085E0492F50E0641775071CF1CD
:1024D0009830F8F4FA0131968E9FD0018F9FB00D9D
:1024E0001124AF54BD4F3C91849FF001859FF00DA6
:1024F0001124EF54FD4F308311964D915C9112974A
:102500005283418313963C911397338314963C91E5
:1025100034839F5FD8CF21502093000167CCFA010C
:102520008181F0E88F9F90011124DA018C91820F54
:10253000932F911D009721F090933B0280933A02D4
:1025400080915502811152CC10E08EEE810F8230C5
:1025500028F466E070E0812F0E94910C1F5F143117
:10256000A1F781E0809355021092F0021092EF02E1
:1025700010924C0310926E030E94200586EA91E0AF
:102580009093A4028093A30287EA91E09093A6021D
:102590008093A5022BCC81E090E0A4CCF1E0F6176B
:1025A00008F024CCDA0111966C9170E0B2E0FB16D1
:1025B000B1F0FA018281F0E88F9FC0011124682BED
:1025C000792B23E0F21659F0DA0113968C9190E002
:1025D00090E4899F902D88271124682B792BF8018E
:1025E00080810E94170902CC80EF0E947E018CE658
:1025F0000E947E011EEF1231F0F480E00E947E0105
:1026000081E00E947E018BE00E947E0181E00E94B9
:102610007E0181E00E947E0181E00E947E01112303
:1026200021F08DEF810F823030F485E00E947E0131
:1026300081E00E947E0184EF810F863078F482E091
:102640000E947E018AE00E947E018DEF810F823020
:1026500038F089EF810F833048F402C01130A9F7B8
:1026600083E00E947E0188E00E947E01123130F4F6
:1026700084E00E947E018EE00E947E0180EF810F47
:10268000823030F486E00E947E0181E00E947E016B
:102690008FE70E947E011F5F123109F0ACCF87EFF8
:1026A0000E947E01A3CB662309F4A0CBDA010C9132
:1026B00080EF0E947E018EE60E947E01802F0E94A4
:1026C0007E01043160F710E0F801E35AFB4F80818E
:1026D0000E947E01000F111FF801EF58FB4F7F0190
:1026E00080818F770E947E01D7018D919C919C0102
:1026F0002078232B39F0880F892F881F990B8F772B
:102700000E947E01F801EF58FB4F808191819C016E
:102710002227307C232B19F2990F880B990F982FC1
:10272000881F8F770E947E01BACF80EF0E947E01C2
:102730008AE60E947E0112EF8FE7163008F4812F9F
:102740000E947E011F5F1630B9F7A9CF0E94B60B19
:10275000009111031091120380EF90E00E949E02FD
:1027600080EC90E00E949E02C8018F7799270E941A
:102770009E02001F0027001F802F90E0CFCB0E94F9
:10278000B60B009113031091140380EF90E00E94A8
:102790009E0281EC90E0E6CF0E94B60B00911D03F3
:1027A00010911E0380EF90E00E949E0283EC90E067
:1027B000B0CB0E94B60B009115031091160380EF69
:1027C00090E00E949E0284EC90E00E949E02C8016C
:1027D0008F7799270E949902C801880F892F881F37
:1027E000990B91958F7799270E94990287EF90E036
:1027F0000E949E02FBCA0E94B60B00911903109121
:102800001A0380EF90E00E949E0286EC90E0DDCFFC
:10281000FA018481C080D12CF12CE12C59E1CC0C3F
:10282000DD1CEE1CFF1C5A95D1F7418150E070E091
:1028300060E0A2E1440F551F661F771FAA95D1F7EC
:10284000C42AD52AE62AF72A428150E070E060E0E7
:10285000BBE0440F551F661F771FBA95D1F7C42AF6
:10286000D52AE62AF72A438150E070E060E094E040
:10287000440F551F661F771F9A95D1F7C42AD52A92
:10288000E62AF72A482F50E070E060E023E07695D2
:102890006795579547952A95D1F7C42AD52AE62AF0
:1028A000F72AA6802581F0E42F9F9001112490E063
:1028B000982F88279295990F907E282B392BB12C31
:1028C000C50196958795282B392BD80117969C9092
:1028D0002032310510F430E020E0B1E6CB16BAEE3C
:1028E000DB06E104F10430F040E6C42E4AEED42EBB
:1028F000E12CF12CF8942115310529F4C701B6011A
:102900000E94C40373CA50E040E060E271EA87E0CD
:1029100090E00E94332529013A018901A4EFB1E03A
:10292000A70196010E945225A30192010E946525EC
:1029300029013A01B694BA2CAA24B794A7949A28EC
:10294000892D90E0FC01E255FF4FD49086569F4FB1
:10295000FC012491E22FF0E0EE0FFF1FEE58FF4F35
:10296000E590F490FC018491E82FF0E0EE0FFF1F5A
:10297000E859FF4FA591B4918C918D298C93812CAE
:10298000912C5401CD2CC09484149504A604B70452
:10299000A1F0D7018C918D298C93C8010E949403DA
:1029A000F70180818C218083C8010E949403FFEF8E
:1029B0008F1A9F0AAF0ABF0AE7CF789417CAFA01A5
:1029C0008181282F30E0C080F0E1CF9E600111248A
:1029D000C90143E0969587954A95E1F7C82AD92A17
:1029E000D8011396AC901397B12C12969C91129724
:1029F000E92EF12CEE0CFF1C322F2227E22AF32ABB
:102A0000C50176E0969587957A95E1F7E82AF92A47
:102A100014968C901497E5E0AA0CBB1CEA95E1F79C
:102A2000912CC4019695879596958795A82AB92AE1
:102A300015961C9180FA17F961E0812F0E944303DB
:102A4000959487949924939400E080FC02C0912C83
:102A500001E0602F812F0E941503C6010E9494039C
:102A6000692D812F0E941503C7010E949403602FD6
:102A7000812F0E941503C5010E949403B7C9FA0172
:102A8000D180F0808F2D880FFD2CF294F694F6946F
:102A9000B3E0FB22F82AE3808281880F1E2D129575
:102AA000169516951370182B61E08F2D0E94430325
:102AB00060E08F2D0E9415038D2D8F7190E00E9494
:102AC000940361E08F2D0E9415038E2D8F7190E08D
:102AD0000E94940360E08F2D0E94150360E0812F17
:102AE0000E9443032FEF3FEF40E050E061E0812F71
:102AF0000E949E0E6B0180EF90E00E949E028AEC85
:102B000090E00E949E028D2D869590E00E94990291
:102B1000C60196958795969587958F7799270E94F8
:102B2000990285E0CC0CDD1C8A95E1F7F0E6CF2216
:102B3000DD24812F8695869586959601282BC901DF
:102B40000E9499021770D9CA8091E104843440F13F
:102B50008091E8049091E904825491098E9700F5E0
:102B600090E080E040E050E0BA01FC01E651FB4F0C
:102B700020813181295031092930310588F4FC0147
:102B8000E451FB4F20813181275131092231310538
:102B900028F1208131812650310927303105B8F1E3
:102BA0008091E1048A3108F467C08091E404909137
:102BB000E504843F914080F51092E8021092E7020C
:102BC0008FEF9FEFDC018093E3029093E402A093E8
:102BD000E502B093E6028BE090E000CB440F551F76
:102BE000661F771F416004968038910509F0BDCFBC
:102BF00080E290E09093E8028093E7024093E30242
:102C00005093E4026093E5027093E602E5CA440F34
:102C1000551F661F771FE7CF8091E6049091E70468
:102C200085974B9748F5EDEDF4E082E090E0812C3C
:102C3000912C54019C012F5F3F4F4091E1044217BA
:102C4000130609F00CF4F6C043855485475051092A
:102C50004730510508F0EDC02585368523513109EF
:102C60002F30310508F4D7C0258536852A50310923
:102C70002930310508F4D8C08091E1048A3108F484
:102C800041C08091E4049091E5048032934008F4BF
:102C900093CF8091E6049091E704C697869790F5CC
:102CA0008091E8049091E904C697869758F5ECEE78
:102CB000F4E083E090E0812C912C54019C012F5F83
:102CC0003F4F4091E1044217130609F00CF4DAC0BB
:102CD000DF0112974D915C914C5051094B305105D9
:102CE00008F0CFC020813181255231092B313105C7
:102CF00008F4B9C0208131812C5031092A303105C6
:102D000008F4BAC08091E104823238F18091E6047F
:102D10009091E7040697079700F5EDEDF4E082E067
:102D200090E040E050E0BA01DC0111962091E1040E
:102D30002A171B0609F00CF4D1C0238534852E51C7
:102D400031092731310508F4B4C0238534852C506E
:102D500031092B30310508F4BBC01F821E823A8234
:102D600029828091E1048D3008F4E9C049E753E0FD
:102D7000BE016A5F7F4FCE0101960E948604892BB7
:102D800009F0DDC049E753E0BE016A5F7F4FCE0125
:102D900001960E948604019709F0D1C049E753E0EB
:102DA000BE016A5F7F4FCE0101960E9486048C01AE
:102DB000892B09F0C4C0412C512C32012091E1042F
:102DC00089819A812817190609F00CF4A9C049E7EE
:102DD00053E0BE016A5F7F4FCE0101960E948604D8
:102DE0005C0149E753E0BE016A5F7F4FCE01019667
:102DF0000E948604E1E0AE16B10409F088C0892B78
:102E000009F09DC0440C551C661C771C689440F862
:102E10000F5F1F4FD3CF880C991CAA1CBB1C689452
:102E200080F80296349606CF880C991CAA1CBB1C0D
:102E3000F8CFC9010197959587959093E802809303
:102E4000E7020C972CF41092E8021092E70214CFDC
:102E50008092E3029092E402A092E502B092E60230
:102E600084E090E0BBC9880C991CAA1CBB1C689428
:102E700080F80296349622CF880C991CAA1CBB1CA1
:102E8000F8CFC9010197959587959093E8028093B3
:102E9000E7020C972CF41092E8021092E70232CF6E
:102EA0008092E3029092E402A092E502B092E602E0
:102EB00092CE440F551F661F771F416025853685CA
:102EC0003496235031092530310538F402962CCF41
:102ED000440F551F661F771FF1CFCD0101979595C0
:102EE00087959093E8028093E70240972CF4109224
:102EF000E8021092E70231CF4093E3025093E402DC
:102F00006093E5027093E6028CE090E067C9AB281D
:102F1000B1F40197A1F4440C551C661C771C78CFC2
:102F20001093E8020093E7024092E3025092E40219
:102F30006092E5027092E60281E090E04FC91F8244
:102F40001E823A8229828091EB029091EC0218163F
:102F500019060CF07EC0E091E902F091EA0222E04D
:102F600030E03A8329838281938189974E9708F0D4
:102F700070C083E090E09A838983848195810B9768
:102F80000A9708F066C04CEB51E0BE016A5F7F4FC4
:102F9000CE0101960E9486048C01892B09F059C04C
:102FA0004CEB51E0BE016A5F7F4FCE0101960E945B
:102FB0008604019709F04DC0412C512C320120911B
:102FC000EB023091EC0289819A81821793070CF011
:102FD000E5C04CEB51E0BE016A5F7F4FCE01019628
:102FE0000E9486045C010330110539F14CEB51E07D
:102FF000BE016A5F7F4FCE0101960E9486044C019C
:103000000330110561F44CEB51E0BE016A5F7F4F64
:10301000CE0101960E94860488169906D1F4A11467
:10302000B10409F4AEC0AA94AB2899F4892889F4B4
:10303000440C551C661C771CAEC04CEB51E0BE0125
:103040006A5F7F4FCE0101960E948604A816B906DA
:1030500069F2E091E902F091EA0282819381C697D8
:10306000869778F5848195814B97459750F5DF01D8
:1030700016965F0126ECA20EB11C20E030E040E085
:1030800050E060E070E080E090E00D911C911197BD
:103090000950110908301105A0F412960D911C91E8
:1030A0001397015111090D30110508F487C01296CC
:1030B0000D911C911397045011090530110508F466
:1030C000A3C08091E104893380F182819381895783
:1030D00091098335910548F584819581CA9789972F
:1030E00020F59F012A5F3F4F812C912C540143E032
:1030F00050E0D9016D917C9111976A507109693046
:10310000710598F412966D917C911397665171092F
:103110006131710508F47CC012966D917C91665006
:1031200071096730710508F4A3C08091E10482320F
:1031300009F0A3C0828193810A97099708F09DC086
:10314000A091E104B0E0A150B048AA0FBB1FAE0FA0
:10315000BF1F8D919C910A97099708F08EC010921D
:10316000E8021092E7028FEF9FEFDC018093E30209
:103170009093E402A093E502B093E60286E090E02B
:103180002DC88A94892809F064CF440C551C661C0C
:10319000771C689440F80F5F1F4F11CF1093E8021F
:1031A0000093E7024092E3025092E4026092E5024B
:1031B0007092E60282E090E00C94EE1001E00E9432
:1031C000F12721601496AA16BB0609F05ECF209362
:1031D000E3023093E4024093E5025093E60200E2FA
:1031E0000E940C282093E1023093E20285E090E0F7
:1031F0009093E0028093DF0280E390E09093E802F6
:103200008093E7020C94F21001E00E94F127DACFDC
:10321000D501C401880F991FAA1FBB1F4C015D0176
:10322000689480F84E5F5F4F2C5F3F4F4B335105E2
:1032300009F05FCF9F012A583F4FD9012D913C9152
:103240002A5031092930310508F06FCF2CE130E0E8
:103250003093E8022093E7028092E3029092E40226
:10326000A092E502B092E6028AE090E00C94EE10A3
:10327000880C991CAA1CBB1CD5CF828193818957CD
:1032800091098335910560F58091E104813240F127
:1032900084819581CA97899718F59F012A5F3F4FCE
:1032A000812C912C540143E050E0D9016D917C9127
:1032B00011976A5071096930710590F412966D91F9
:1032C0007C9113976651710961317105A0F11296D5
:1032D0006D917C91665071096730710508F458C092
:1032E000828193818C549109C59708F085C08091A3
:1032F000E104843009F051C084819581809747971B
:1033000008F04BC0868197810997099708F045C05E
:103310001092E8021092E7028FEF9FEFDC0180939A
:10332000E3029093E402A093E502B093E60287E003
:1033300090E00C94EE10D501C401880F991FAA1FCC
:10334000BB1F4C015D01689480F84E5F5F4F2C5F9E
:103350003F4F4332510509F0A8CF9F012A5B3F4FF1
:10336000D9012D913C912A5031092930310508F0BD
:10337000B7CF20E130E03093E8022093E70280925B
:10338000E3029092E402A092E502B092E602F6CE49
:10339000880C991CAA1CBB1CD8CF8091E1048434F2
:1033A00058F18481958189549109C39728F59F012B
:1033B0002A5F3F4FBF016A577F4F812C912C5401E8
:1033C000D9014D915C9111974950510949305105EE
:1033D00098F412964D915C911397465151094131E1
:1033E000510508F4A3C012964D915C9146505109C5
:1033F0004730510508F4B9C08091E1048634C0F12A
:10340000828193810C970B9798F584819581099718
:10341000099770F5868197818C974F9748F580853D
:10342000918589974D9720F59F01265F3F4F812C0D
:10343000912C540145E050E0D9016D917C91119798
:103440006C5071096B30710598F412966D917C91F6
:1034500013976E5171096731710508F48BC012968C
:103460006D917C91695071096930710508F4B2C0A1
:103470008091E104883508F4BCC08281938185582D
:1034800091098B35910508F0B4C0848195818254EF
:1034900091098E9708F0ADC08F01045C1F4F8DE13C
:1034A00090E030E020E04091E1044450550B841757
:1034B000950714F5A80142505109DA014D915C912C
:1034C000495051094830510508F093C0BC016F5F65
:1034D0007F4FD8014D915C9111974750510947306A
:1034E000510508F47CC04D915C914851510942311D
:1034F000510508F47BC0CB01019795958795909372
:10350000E8028093E7028A970CF473C0C901330F75
:10351000AA0BBB0B8093E3029093E402A093E50215
:10352000B093E60289E090E00C94EE10D501C4015E
:10353000880F991FAA1FBB1F4C015D01689480F87A
:103540002C5F3F4F6217730709F03ACF20E230E05B
:103550003093E8022093E7028092E3029092E40223
:10356000A092E502B092E602E2CE880C991CAA1C59
:10357000BB1CE6CFD501C401880F991FAA1FBB1F32
:103580004C015D01689480F84E5F5F4F2C5F3F4FA8
:103590004534510509F050CF9F0126573F4FD901BF
:1035A0002D913C912C5031092B30310508F060CF22
:1035B00020E230E03093E8022093E7028092E302B9
:1035C0009092E402A092E502B092E60288E090E0D8
:1035D0000C94EE10880C991CAA1CBB1CD5CF220F92
:1035E000331F216002960C5F1F4F5DCF220F331FE8
:1035F000F9CF8091E104803279F582819381069739
:10360000069750F5848195810997099728F59F01C0
:103610002A5F3F4FBF01625C7F4F812C912C540188
:10362000D9014D915C911197465051094630510591
:1036300098F412964D915C91139749515109433179
:10364000510508F475C012964D915C91495051098D
:103650004930510508F48EC02091EB023091EC0204
:1036600039872887263031050CF49BC08F010A5F0B
:103670001F4F73E0272E312CE5ECCE2EEDE9DE2E28
:10368000ECE1EE2EE1E8FE2E8885998528163906B4
:103690000CF075C0D8016D917C91F8013497A08031
:1036A000B18090E080E00E94B0262B013C01B50182
:1036B00090E080E00E94B0264B015C012DEC3CECD8
:1036C0004CE45FE30E9462279B01AC01C301B2019D
:1036D0000E940326F0E0E0E087FD14C02DEC3CECF6
:1036E0004CE45FE3C301B2010E9462279B01AC017D
:1036F000C501B4010E940326E2E0F0E087FD02C0AC
:10370000E1E0F0E0A701960163E971E080E091E07B
:103710000E94CF276F01FF0FEE08FF08C626D726AD
:10372000E826F926BFEF2B1A3B0A0E5F1F4FACCFDE
:10373000D501C401880F991FAA1FBB1F4C015D0151
:10374000689480F82C5F3F4F6217730709F068CFC9
:103750002EE030E03093E8022093E7028092E3020B
:103760009092E402A092E502B092E6028FE090E02F
:103770000C94EE10880C991CAA1CBB1CE3CFC092C1
:10378000E302D092E402E092E502F092E60280E2E7
:1037900090E09093E8028093E7028FEF9FEF0C9404
:1037A000EE10E2E0E093DD041092E1042FB7F8940C
:1037B0008091AD029091AE02A091AF02B091B002A3
:1037C0002FBF8C159D05AE05BF0510F40C94A410F9
:1037D0000C94F210F89482E08093B0008093B100D2
:1037E00094E69093B3001092B200809370007894A6
:1037F0008093DD041092E1048091DE0460E00E9479
:1038000043030C94F60E8091B10084608093B10064
:103810008091B00081608093B0000C94F60EDA01C4
:1038200013962C911397CC90D12CF12CE12C61E1C3
:10383000CC0CDD1CEE1CFF1C6A95D1F711968C9107
:1038400090E0B0E0A0E07AE0880F991FAA1FBB1FAC
:103850007A95D1F7C82AD92AEA2AFB2AFA01828165
:1038600090E0B0E0A0E0E3E0880F991FAA1FBB1F23
:10387000EA95D1F7C82AD92AEA2AFB2A822F90E0B2
:10388000B0E0A0E0F4E0B695A79597958795FA95F6
:10389000D1F7C82AD92AEA2AFB2A122F1F70A3E0DF
:1038A000AA2EB12C09E0B8EC2B2E82E4382E11118F
:1038B0004DC01092700061E083E00E94430360E01D
:1038C00083E00E94150381E08093B0000093B10073
:1038D0002092B3003092B40080E699E00E94380450
:1038E00088E592E00E942A0448E1842E912C412C24
:1038F000512C50E8652E712CD701C60184219521E9
:10390000A621B721892B8A2B8B2BE9F080EB94E041
:103910000E94380488E592E00E942A047694679415
:1039200057944794F1E08F1A910831F768E270E0FC
:1039300080E090E00E94C40361E0A61AB10809F09B
:10394000B6CF0C94F60E88E592E0E2CF113071F715
:103950001092700061E083E00E94430360E083E026
:103960000E9415031093B0000093B1002EED209338
:10397000B3003AE43093B40089E793E00E9438043E
:1039800089E793E00E942A0489E793E00E943804C3
:1039900098E1892E912C412C512C20E8622E712C1B
:1039A000D701C60184219521A621B721892B8A2B15
:1039B0008B2BB1F089E793E00E942A0489E793E01A
:1039C0000E943804769467945794479441E0841A8F
:1039D000910831F78091B0008F7D8093B000A6CF21
:1039E00089E793E00E94380489E793E00E942A0463
:1039F000E9CFF1E1EF2EF7E2FF2E812F0E94EC02DA
:103A0000019709F068C0E1E0EE1AF108B1F702E0B1
:103A100068E2C62ED12CE12C77E0F72E882483941F
:103A2000912C01110AC051E1A52E57E2B52E812F2C
:103A30000E94EC02892B09F450C00E949F032B01C5
:103A40003C0141E1A42E47E2B42E002309F44CC00E
:103A50000E949F0364197509860997096F317105E2
:103A60008105910508F04CC0F1105AC0E39437E08D
:103A7000F32E31E0C31AD108A1F6F9809B818F2D76
:103A8000890F2A81820F2C81820F2D8128134AC031
:103A9000011148C03110F92E64E170E080E090E03F
:103AA0000E94C40380EF90E00E949E028FEC90E0A1
:103AB0000E949E028F2D869590E00E949E028F2D7F
:103AC000817090E00E949E02812F90E0880F991FE4
:103AD00083290C948E0F00E09BCFF1E0AF1AB10860
:103AE00009F0A5CF03E0A9CF812F0E94EC02019736
:103AF00009F0AECF21E0A21AB108B1F704E0A8CFD7
:103B0000E1E0F0E0EC0FFD1FEE0DF11D808194016E
:103B10000F2C01C0220F0A94EAF7822B8083A4CFD6
:103B2000FA94A7CFFF24FA94B7CF85ED8093BC0019
:103B30008091470390914803A0914903B0914A03B3
:103B40000796A11DB11D23E0B695A795979587957A
:103B50002A95D1F72091BC0024FD03C010924503A3
:103B60000895409147035091480360914903709133
:103B70004A03452B462B472B69F30097A105B10556
:103B800041F025E32A95F1F700000197A109B10959
:103B9000E1CF809146030C943E051F920F920FB621
:103BA0000F9211242F933F934F935F936F937F93C3
:103BB0008F939F93AF93BF93EF93FF938FE693E021
:103BC0000E942602FF91EF91BF91AF919F918F913B
:103BD0007F916F915F914F913F912F910F900FBE09
:103BE0000F901F9018951F920F920FB60F921124ED
:103BF0002F938F939F93EF93FF93E0917F03F09127
:103C000080038081E0918503F091860382FD1BC0D3
:103C10009081809188038F5F8F7320918903821731
:103C200041F0E0918803F0E0E159FC4F958F8093DB
:103C30008803FF91EF919F918F912F910F900FBE6D
:103C40000F901F9018958081F4CF1F920F920FB69E
:103C50000F9211242F933F938F939F93AF93BF9312
:103C60008091AD029091AE02A091AF02B091B002EE
:103C700030919E0223E0230F2D3758F50196A11DA8
:103C8000B11D20939E028093AD029093AE02A0934B
:103C9000AF02B093B00280919F029091A002A091D8
:103CA000A102B091A2020196A11DB11D80939F02B5
:103CB0009093A002A093A102B093A202BF91AF91F2
:103CC0009F918F913F912F910F900FBE0F901F905A
:103CD000189526E8230F0296A11DB11DD2CF1F9281
:103CE0000F920FB60F9211240F900FBE0F901F90DE
:103CF00018951F920F920FB60F9211242F933F9396
:103D00004F935F936F937F938F939F93AF93BF93E3
:103D1000EF93FF938091DE040E94EC022091E20475
:103D20003091E3042F5F3F4F3093E3042093E2048C
:103D30009091E104953618F096E09093DD0490910F
:103D4000DD04943009F466C0B8F49230F1F0933099
:103D500009F444C09091E004992309F46BC08111E7
:103D60007AC08091DF04882309F463C08091DF0466
:103D700061E00E9415035EC0953009F457C096308B
:103D800049F791E09093AE054FC08111E3CF2091A8
:103D9000E2043091E3042436310528F41092E30460
:103DA0001092E204D7CF1092AE051092E104E09198
:103DB000E10491E09E0F9093E104F0E02091E20491
:103DC0003091E304EE0FFF1FE352FB4F3087278350
:103DD0001092E3041092E20493E019C0813009F0DC
:103DE000B9CFE091E10491E09E0F9093E104F0E0FF
:103DF0002091E2043091E304EE0FFF1FE352FB4FEA
:103E0000308727831092E3041092E20494E09093A9
:103E1000DD04A0CF882359F22091E2043091E3041D
:103E20002536310508F496CF95E0F1CF811192CF78
:103E3000B5CF2D9AFF91EF91BF91AF919F918F9147
:103E40007F916F915F914F913F912F910F900FBE96
:103E50000F901F9018958091DF04882321F08091A6
:103E6000DF0460E086CF2D98E5CF1F920F920FB64A
:103E70000F9211242F933F934F935F936F937F93F0
:103E80008F939F93AF93BF93EF93FF938091B9006C
:103E9000887F803609F44AC0F0F5883209F4A7C05B
:103EA00018F5803109F49BC0B8F4882309F4F9C0EF
:103EB000883009F494C0FF91EF91BF91AF919F9129
:103EC0008F917F916F915F914F913F912F910F90C3
:103ED0000FBE0F901F901895883109F488C080326A
:103EE00051F78093430314C0803409F49DC040F41B
:103EF0008033B9F38833F9F68093430385ECB0C07F
:103F0000803509F485C0883509F496C0883499F65F
:103F10000E94951DD0CF883909F48CC038F58837B8
:103F200029F050F4883611F0803729F683E0809329
:103F3000450310929B0257C0883809F47BC0803932
:103F400019F0803809F0B7CF80919B02803208F0D9
:103F500071C0E0919B0281E08E0F80939B02809163
:103F6000BB00F0E0E558FD4F80833DC0803B39F059
:103F7000E0F4803A09F479C0883A09F09CCF84E0F3
:103F80008093450310927A0210927902E091A30285
:103F9000F091A40209958091790281110FC081E00E
:103FA000809379021092590209C0803C09F4A6CF8F
:103FB000883C09F4A3CF883B09F07DCFE0917A02D9
:103FC00081E08E0F80937A02F0E0E75AFD4F808106
:103FD0008093BB0090917A028091790229C08091F0
:103FE00020038093BB0085EC8093BC0064CF90914C
:103FF000420380914103981758F5E091420381E014
:104000008E0F80934203F0E0EF5DFC4F8081E9CF9B
:10401000E091420381E08E0F809342038091BB00C8
:10402000F0E0EF5DFC4F808390914203809141036B
:104030009817C8F285E8D8CFE091420381E08E0F4F
:10404000809342038091BB00F0E0EF5DFC4F8083E2
:104050008091440381115CCF81E080931F0384EA47
:104060008093BC001092450326CF85EC8093BC0062
:104070001092450380919B02803230F4E0919B02C4
:10408000F0E0E558FD4F108260919B0270E0E091F6
:10409000A502F091A6028BE792E0099510929B028F
:1040A0000ACF1092430334CF1F920F920FB60F9294
:1040B00011242F933F934F935F936F937F938F932D
:1040C0009F93AF93BF93CF93DF93EF93FF93809131
:1040D0005702C091DC04D0E087FF24C01092850015
:1040E00010928400809157028F5F809357028091D5
:1040F0005702082E000C990B8C179D0724F4809111
:1041000057028C30C4F18091840090918500049610
:1041100080349C4908F47AC0809184009091850095
:10412000049676C080915702082E000C990B8C17CC
:104130009D07C4F6E09157028E2FEE0F990BFC01FC
:10414000EE0FFF1FE80FF91FE854FB4F808186FF39
:10415000C9CFE09157028E2FEE0F990BFC01EE0FA5
:10416000FF1FE80FF91FE854FB4F808160E08F7359
:104170000E941503B7CF2091840030918500E09113
:1041800057028E2FEE0F990BFC01EE0FFF1FE80F69
:10419000F91FE854FB4F81819281820F931F909306
:1041A000890080938800E09157028E2FEE0F990BC3
:1041B000FC01EE0FFF1FE80FF91FE854FB4F808151
:1041C00086FF11C0E09157028E2FEE0F990BFC0174
:1041D000EE0FFF1FE80FF91FE854FB4F808161E0ED
:1041E0008F730E941503FF91EF91DF91CF91BF91E3
:1041F000AF919F918F917F916F915F914F913F917F
:104200002F910F900FBE0F901F90189580E49CE99E
:1042100090938900809388008FEF80935702E3CFBB
:10422000CF92DF92EF92FF920F931F93E82FF92F17
:1042300005C0015011092109310961F190819623CE
:104240009417B9F305C0015011092109310911F181
:10425000908196239413F7CFC12CD12CE12CF12C13
:104260000AC08FEFC81AD80AE80AF80A0C151D050B
:104270002E053F0579F080818623841791F36C2DFC
:104280007D2D8E2D9F2D1F910F91FF90EF90DF9030
:10429000CF90089560E070E080E090E01F910F9172
:1042A000FF90EF90DF90CF900895CF92DF92EF9242
:1042B000FF92109272031092710368EEC62E63E0B3
:1042C000D62EE12CF12CC0927303D0927403E092AD
:1042D0007503F09276038DE091E0909370038093E4
:1042E0006F0385EC90E090937C0380937B0384ECD8
:1042F00090E090937E0380937D0380EC90E0909318
:10430000800380937F0381EC90E0909382038093FD
:10431000810382EC90E0909384038093830386EC86
:1043200090E0909386038093850310928803109207
:10433000890310928A0310928B038FE191E090938E
:104340000D0480930C0410920E0410920F0410922E
:104350001004109211041092AB04109214041092E5
:104360001604109215040E948B011092AF04109253
:10437000AE04C092B004D092B104E092B204F092C4
:10438000B30485E291E09093AD048093AC0486E0A1
:104390008093DE041092E004EFEAF5E023ED35E0CF
:1043A0004FEF68EB7BE08091DC048C30D0F491E03F
:1043B000980F9093DC04808390E0DC01AA0FBB1F70
:1043C000A80FB91FA854BB4F12967C936E931197F8
:1043D00033962E173F0739F7FF90EF90DF90CF907D
:1043E00008954083F5CF789484B5826084BD84B508
:1043F000816084BD85B5826085BD85B5816085BDE0
:1044000080916E00816080936E0010928100809197
:10441000810082608093810080918100816080931F
:104420008100809180008160809380008091B10044
:1044300084608093B1008091B00081608093B0006F
:1044400080917A00846080937A0080917A00826003
:1044500080937A0080917A00816080937A008091C5
:104460007A00806880937A001092C10087E180937F
:10447000140480911504909116040E94C328C091E1
:104480001404D0E0CE0101960E94272890931604D0
:1044900080931504FC01EC0FFD1F108212E0DC017B
:1044A0001C9325E011962C93AE014250510967EF01
:1044B00071E002960E944C2987E199E090939A045A
:1044C000809399048BE698E090939C0480939B04DE
:1044D0008EE398E090939E0480939D048FE89AE089
:1044E0009093A00480939F0481E99CE09093A204A0
:1044F0008093A10485E39AE09093A4048093A3049D
:1045000086EC9EE09093AA048093A90489EE9DE036
:104510009093A6048093A504E0917F03F09180031B
:104520001083E0917F03F09180031082E0917B0380
:10453000F0917C031082E0917D03F0917E0380E195
:10454000808310928703E0918303F091840386E0D7
:104550008083E0918103F091820380818061808378
:10456000E0918103F0918203808188608083E091F3
:104570008103F0918203808180688083E0918103D0
:10458000F091820380818F7D80838FE693E090930A
:104590001304809312048091AB0481114FC061E039
:1045A0008DE00E94430362ED70E080E090E00E94A5
:1045B000C40361E08DE00E94150368E270E080E0D2
:1045C00090E00E94C40360E08DE00E94150362ED5C
:1045D00070E080E090E00E94C40361E08DE00E9402
:1045E000150368E270E080E090E00E94C40360E0A0
:1045F0008DE00E9415036AEF70E080E090E00E9479
:10460000C403C5E062ED70E080E090E00E94C40366
:1046100061E08DE00E94150368E270E080E090E0C8
:104620000E94C40360E08DE00E941503C15051F761
:104630006DE770E080E090E00E94C4030E945A01A0
:104640008091140481110E9414010E94E90D1092BE
:10465000F0021092EF0210924C0310926E030E942F
:10466000200586EA91E09093A4028093A30287EA52
:1046700091E09093A6028093A50260EF85E50E94E9
:104680009D076BEF80E00E949D070E94B60B25E01E
:10469000F22E00E010E07724739432E0E32E809154
:1046A000AA02882349F069B18091A70268236C7F30
:1046B00040E080E00E944A0A8091AB02882379F0B2
:1046C00063B186B16F73B0E48B9FC0011124682B76
:1046D0008091A802682340E081E00E944A0A80910C
:1046E000AC02882359F066B18091A9028F7066955B
:1046F0006695682340E082E00E944A0A8091120495
:1047000090911304EC01E881F9810084F185E02D9A
:104710000995892B09F427C1809112049091130403
:10472000DC01ED91FC910284F385E02D09958F3F2A
:10473000980721F3382F20915A04222309F467C0E7
:10474000873F09F055C010925A0480911A048137AE
:1047500051F0893709F03EC080911404882371F22A
:104760000E941401CBCFE091A704F091A8043097E8
:1047700029F280915B0490915C04DC011197B7FDF4
:10478000DC01B595A7957A2F42E154E09A0190E0BB
:104790004E5F5F4F2F5F3F4F971770F4EA016F81B5
:1047A000E9016F83EA018885879588278795860FB9
:1047B000E9018F839F5FECCFBB27AE5EBB4F17969F
:1047C0008C911797882311F018961C928AE194E037
:1047D000099594CFE091A904F091AA04309709F4C7
:1047E0008DCF60915B0461504BE154E0099586CF19
:1047F00020915B0430915C04F901EE5EFB4F8087F1
:104800002F5F3F4F30935C0420935B0477CF209160
:104810001704222309F466C087FD64C09FEF920F3E
:1048200090931704E92FF0E0EE5EFB4F8087911123
:1048300065CF80911804882309F460CF803D09F486
:1048400046C060F4803921F1E0919D04F0919E040E
:10485000803C09F440C01092180450CF843F29F1E5
:10486000853F81F1803EB9F7E0919904F0919A0477
:10487000309789F360911A04D0E86D9FC00111242C
:1048800060911B04680F792F711D8091190418C065
:10489000E0919B04F0919C043097E9F260911A0436
:1048A00020E8629FC0011124EBCFE091A104F091B8
:1048B000A20460911A0470E080911B04309759F2B1
:1048C0000995C9CFE091A304F091A404F2CFE0913F
:1048D0009F04F091A004309709F4BDCF60911A04B1
:1048E00070E0D3CF303FB8F4282F207F30E08F70B6
:1048F00080931904203F310561F1BCF4203C31055F
:1049000029F164F42039310509F0F8CEE09217045A
:1049100020931804F3CE9C013327ECCF203D3105C2
:10492000A9F0203E310591F3E9CE293F3105C1F0D0
:1049300034F4C901845F9109029740F3DFCE2F3F21
:10494000310509F0DBCE0E948B01D8CE709217049E
:10495000DFCF70925A0410925C0410925B04CECEAA
:104960000E945A01CBCE8FB7F8948090AD02909000
:10497000AE02A090AF02B090B0028FBF8091DB0278
:104980009091DC02A091DD02B091DE024091010124
:104990005091020170E060E0881A990AAA0ABB0AE5
:1049A000481559056A057B0508F051C0840F951F0D
:1049B000A61FB71F8093DB029093DC02A093DD0259
:1049C000B093DE0282E1C82E84E0D82EC2EFC6305A
:1049D000C8F4F601E55BFF4F8081823099F4809145
:1049E000D9029091DA020C2E02C0959587950A940F
:1049F000E2F780FF07C08C2F0E947F03BC018C2F41
:104A00000E94B300CF5F8FEFC81AD80AC630F9F6FC
:104A10008091000187FD1BC0C0E02C2F30E0809109
:104A20000001082E000C990B8217930784F0F29E68
:104A3000F001F39EF00D1124EF54FD4F618172815E
:104A40002481438180810E94330ECF5FE6CF011520
:104A5000110509F424CE0E941202882309F41FCE06
:104A60000E9400001CCE052E97FB1EF400940E94AD
:104A70004A2557FD07D00E94652507FC03D04EF458
:104A80000C944A2550954095309521953F4F4F4FB6
:104A90005F4F089590958095709561957F4F8F4FEA
:104AA0009F4F08950E948725A59F900DB49F900D5C
:104AB000A49F800D911D11240895B7FF0C945225D9
:104AC0000E945225821B930B0895A1E21A2EAA1B65
:104AD000BB1BFD010DC0AA1FBB1FEE1FFF1FA217AE
:104AE000B307E407F50720F0A21BB30BE40BF50BAB
:104AF000661F771F881F991F1A9469F76095709534
:104B0000809590959B01AC01BD01CF010895A29FB6
:104B1000B001B39FC001A39F700D811D1124911D91
:104B2000B29F700D811D1124911D08955058BB270F
:104B3000AA270E94AE250C9428270E941A2738F035
:104B40000E94212720F039F49F3F19F426F40C9499
:104B500017270EF4E095E7FB0C941127E92F0E942C
:104B6000392758F3BA17620773078407950720F0AF
:104B700079F4A6F50C945B270EF4E0950B2EBA2F72
:104B8000A02D0B01B90190010C01CA01A001112453
:104B9000FF27591B99F0593F50F4503E68F11A16FF
:104BA000F040A22F232F342F4427585FF3CF469590
:104BB00037952795A795F0405395C9F77EF41F16B2
:104BC000BA0B620B730B840BBAF09150A1F0FF0F7C
:104BD000BB1F661F771F881FC2F70EC0BA0F621F68
:104BE000731F841F48F4879577956795B795F79558
:104BF0009E3F08F0B0CF9395880F08F09927EE0FED
:104C00009795879508950E94ED2608F481E0089510
:104C10000E941C260C9428270E94212758F00E94ED
:104C20001A2740F029F45F3F29F00C941127511105
:104C30000C945C270C9417270E94392768F399235A
:104C4000B1F3552391F3951B550BBB27AA27621788
:104C50007307840738F09F5F5F4F220F331F441F95
:104C6000AA1FA9F335D00E2E3AF0E0E832D09150C9
:104C70005040E695001CCAF72BD0FE2F29D0660FB6
:104C8000771F881FBB1F261737074807AB07B0E8F9
:104C900009F0BB0B802DBF01FF2793585F4F3AF0FF
:104CA0009E3F510578F00C9411270C945C275F3FD0
:104CB000E4F3983ED4F3869577956795B795F79585
:104CC0009F5FC9F7880F911D9695879597F908956D
:104CD000E1E0660F771F881FBB1F62177307840709
:104CE000BA0720F0621B730B840BBA0BEE1F88F718
:104CF000E09508950E9481266894B1110C945C2778
:104D000008950E94412788F09F5798F0B92F99275E
:104D1000B751B0F0E1F0660F771F881F991F1AF0A6
:104D2000BA95C9F714C0B13091F00E945B27B1E089
:104D300008950C945B27672F782F8827B85F39F088
:104D4000B93FCCF3869577956795B395D9F73EF43F
:104D500090958095709561957F4F8F4F9F4F0895E7
:104D6000E89409C097FB3EF4909580957095619505
:104D70007F4F8F4F9F4F9923A9F0F92F96E9BB27BB
:104D80009395F695879577956795B795F111F8CF37
:104D9000FAF4BB0F11F460FF1BC06F5F7F4F8F4FA2
:104DA0009F4F16C0882311F096E911C0772321F098
:104DB0009EE8872F762F05C0662371F096E8862F30
:104DC00070E060E02AF09A95660F771F881FDAF787
:104DD000880F9695879597F90895990F0008550FB4
:104DE000AA0BE0E8FEEF16161706E807F907C0F071
:104DF00012161306E407F50798F0621B730B840B79
:104E0000950B39F40A2661F0232B242B252B21F452
:104E100008950A2609F4A140A6958FEF811D811DF2
:104E2000089597F99F6780E870E060E008959FEF2C
:104E300080EC089500240A94161617061806090631
:104E4000089500240A941216130614060506089500
:104E5000092E0394000C11F4882352F0BB0F40F488
:104E6000BF2B11F460FF04C06F5F7F4F8F4F9F4FC8
:104E7000089557FD9058440F551F59F05F3F71F04A
:104E80004795880F97FB991F61F09F3F79F08795B1
:104E90000895121613061406551FF2CF4695F1DF3A
:104EA00008C0161617061806991FF1CF86957105CA
:104EB000610508940895E894BB2766277727CB01FE
:104EC00097F908950E9475270C9428270E941A27A5
:104ED00038F00E94212720F0952311F00C9411271F
:104EE0000C94172711240C945C270E94392770F327
:104EF000959FC1F3950F50E0551F629FF001729F7F
:104F0000BB27F00DB11D639FAA27F00DB11DAA1F8D
:104F1000649F6627B00DA11D661F829F2227B00DDA
:104F2000A11D621F739FB00DA11D621F839FA00D65
:104F3000611D221F749F3327A00D611D231F849FB5
:104F4000600D211D822F762F6A2F11249F5750400C
:104F50009AF0F1F088234AF0EE0FFF1FBB1F661F87
:104F6000771F881F91505040A9F79E3F510580F050
:104F70000C9411270C945C275F3FE4F3983ED4F324
:104F8000869577956795B795F795E7959F5FC1F7F4
:104F9000FE2B880F911D9695879597F90895DB0153
:104FA0008F939F930E945225BF91AF91A29F800D36
:104FB000911DA39F900DB29F900D11240895991BF0
:104FC00079E004C0991F961708F0961B881F7A9500
:104FD000C9F780950895EE0FFF1F0590F491E02D1D
:104FE0000994002E083090F0982F872F762F652F88
:104FF000542F432F322F22270850F4CF220F331F74
:10500000441F551F661F771F881F991F0A95B2F707
:10501000002D089597FD1094002E083098F0085048
:10502000232F342F452F562F672F782F892F912D1F
:10503000F4CF1594979587957795679557954795EC
:10504000379527950A95AAF71124002D08950F93F7
:105050001F93CF93DF938230910510F482E090E0AC
:10506000E091D505F091D60530E020E0B0E0A0E079
:10507000309799F42115310509F44AC0281B390BE2
:1050800024303105D8F58A819B816115710589F13C
:10509000FB0193838283FE0111C040815181028113
:1050A000138148175907E0F04817590799F41097EA
:1050B00061F012960C93129713961C933296CF01BF
:1050C000DF91CF911F910F9108950093D505109313
:1050D000D605F4CF2115310551F04217530738F0AA
:1050E000A901DB019A01BD01DF01F801C1CFEF0188
:1050F000F9CF9093D6058093D505CDCFFE01E20F71
:10510000F31F819391932250310939832883D7CF9C
:105110002091D3053091D405232B41F42091050132
:10512000309106013093D4052093D30520910301DB
:10513000309104012115310541F42DB73EB740915E
:10514000070150910801241B350BE091D305F09124
:10515000D405E217F307A0F42E1B3F0B28173907DD
:1051600078F0AC014E5F5F4F2417350748F04E0FC3
:105170005F1F5093D4054093D305819391939FCFA4
:10518000F0E0E0E09CCFCF93DF930097E9F0FC01E3
:10519000329713821282A091D505B091D605ED0108
:1051A00030E020E01097A1F420813181820F931F1D
:1051B0002091D3053091D4052817390709F061C033
:1051C000F093D405E093D305DF91CF910895EA01E0
:1051D000CE17DF07E8F54A815B819E014115510535
:1051E000B1F7E901FB83EA8349915991C40FD51FB7
:1051F000EC17FD0761F4808191810296840F951F61
:10520000E90199838883828193819B838A83F0E07B
:10521000E0E012968D919C9113970097B9F52D912E
:105220003C911197CD010296820F931F2091D305D7
:105230003091D4052817390739F6309751F5109277
:10524000D6051092D505B093D405A093D305BCCF55
:10525000D383C28340815181840F951FC817D9071A
:1052600061F44E5F5F4F88819981480F591F5183C8
:1052700040838A819B81938382832115310509F0C4
:10528000B0CFF093D605E093D5059ECFFD01DC01AC
:10529000C0CF13821282D7CFFB01DC0141505040B6
:1052A00048F001900D920020C9F701C01D924150B5
:0A52B0005040E0F70895F894FFCF96
:1052BA00FF13000000D7058000000000004802A884
:1052CA0001D501A3020602E401F80100000000472B
:1052DA000C000000006E074107BC071E070D012ED7
:1052EA00071F074D617820736572766F73206174AA
:1052FA0074616368656400556E6B6E6F776E2070BB
:10530A00696E206D6F6465004932433A20546F6FAD
:10531A00206D616E792062797465732072656365A8
:10532A0069766564004932433A20546F6F20666596
:10533A00772062797465732072656365697665643E
:10534A000031302D62697420616464726573736917
:10535A006E67206E6F7420737570706F72746564F7
:10536A0000746F6F206D616E792071756572696561
:10537A0073002F686F6D652F6B736572796A2F41A1
:10538A0070702F5341354669726D6174615F69723D
:10539A005F6E656F2F5341354669726D6174615F47
:1053AA0069725F6E656F2F5341354669726D61741C
:0E53BA00615F69725F6E656F2E696E6F000035
:00000001FF
